:020000020000fc
:0100000000ff
:0100010001fd
:0100020000fd
:0100030002fa
:0100040001fa
:0100050001f9
:0100060002f7
:0100070001f7
:0100080000f7
:0100090003f3
:01000a0003f2
:01000b0003f1
:01000c0003f0
:01000d0001f1
:01000e0002ef
:01000f0000f0
:0100100000ef
:0100110000ee
:0100120003ea
:0100130001eb
:0100140000eb
:0100150003e7
:0100160001e8
:0100170002e6
:0100180001e6
:0100190002e4
:01001a0001e4
:01001b0000e4
:01001c0001e2
:01001d0003df
:01001e0000e1
:01001f0000e0
:0100200003dc
:0100210002dc
:0100220000dd
:0100230003d9
:0100240001da
:0100250003d7
:0100260000d9
:0100270001d7
:0100280001d6
:0100290003d3
:01002a0000d5
:01002b0003d1
:01002c0001d2
:01002d0003cf
:01002e0001d0
:01002f0002ce
:0100300000cf
:0100310003cb
:0100320001cc
:0100330002ca
:0100340002c9
:0100350001c9
:0100360001c8
:0100370002c6
:0100380001c6
:0100390002c4
:01003a0003c2
:01003b0001c3
:01003c0002c1
:01003d0001c1
:01003e0000c1
:01003f0000c0
:0100400002bd
:0100410003bb
:0100420002bb
:0100430001bb
:0100440000bb
:0100450001b9
:0100460003b6
:0100470001b7
:0100480001b6
:0100490001b5
:01004a0001b4
:01004b0000b4
:01004c0003b0
:01004d0000b2
:01004e0000b1
:01004f0000b0
:0100500001ae
:0100510001ad
:0100520003aa
:0100530003a9
:0100540003a8
:0100550001a9
:0100560003a6
:0100570000a8
:0100580000a7
:0100590002a4
:01005a0000a5
:01005b0003a1
:01005c0002a1
:01005d00039f
:01005e00029f
:01005f00019f
:01006000039c
:01006100009e
:01006200009d
:01006300009c
:01006400019a
:01006500009a
:010066000396
:010067000296
:010068000394
:010069000393
:01006a000095
:01006b000292
:01006c000093
:01006d000290
:01006e00038e
:01006f00028e
:01007000028d
:01007100028c
:01007200028b
:01007300008c
:010074000388
:010075000189
:010076000287
:010077000187
:010078000384
:010079000086
:01007a000085
:01007b000381
:01007c000083
:01007d00037f
:01007e00037e
:01007f00017f
:01008000007f
:01008100037b
:01008200007d
:01008300017b
:01008400017a
:010085000278
:010086000178
:010087000177
:010088000176
:010089000274
:01008a000273
:01008b000371
:01008c000271
:01008d000171
:01008e000071
:01008f00016f
:01009000036c
:01009100016d
:01009200026b
:010093000369
:01009400016a
:010095000169
:010096000168
:010097000365
:010098000067
:010099000066
:01009a000263
:01009b000262
:01009c000162
:01009d00035f
:01009e00025f
:01009f000060
:0100a000015e
:0100a100035b
:0100a200025b
:0100a300025a
:0100a4000259
:0100a5000357
:0100a6000158
:0100a7000157
:0100a8000057
:0100a9000254
:0100aa000352
:0100ab000252
:0100ac000053
:0100ad000151
:0100ae000051
:0100af000050
:0100b000004f
:0100b100014d
:0100b200024b
:0100b3000349
:0100b4000249
:0100b5000248
:0100b6000148
:0100b7000048
:0100b8000146
:0100b9000145
:0100ba000045
:0100bb000242
:0100bc000340
:0100bd000141
:0100be000041
:0100bf00033d
:0100c000003f
:0100c100003e
:0100c200013c
:0100c300013b
:0100c400003b
:0100c5000139
:0100c6000336
:0100c7000038
:0100c8000136
:0100c9000333
:0100ca000134
:0100cb000232
:0100cc000330
:0100cd00032f
:0100ce000031
:0100cf000030
:0100d000002f
:0100d100022c
:0100d200002d
:0100d300002c
:0100d400012a
:0100d5000228
:0100d6000128
:0100d7000127
:0100d8000027
:0100d9000125
:0100da000025
:0100db000222
:0100dc000221
:0100dd000022
:0100de000120
:0100df00031d
:0100e000021d
:0100e100001e
:0100e200001d
:0100e300021a
:0100e400011a
:0100e500001a
:0100e6000118
:0100e7000117
:0100e8000017
:0100e9000115
:0100ea000213
:0100eb000014
:0100ec000211
:0100ed00030f
:0100ee00020f
:0100ef00030d
:0100f000020d
:0100f100000e
:0100f200020b
:0100f3000309
:0100f4000308
:0100f5000109
:0100f6000009
:0100f7000305
:0100f8000304
:0100f9000105
:0100fa000005
:0100fb000301
:0100fc000102
:0100fd000002
:0100fe000001
:0100ff0003fd
:00000001FF
